:020000040800F2
:1000000000000520211A0008D5170008D71700089E
:10001000D9170008DB170008DD17000800000000F2
:100020000000000000000000000000003172000825
:10003000DF17000800000000D172000835730008C7
:10004000711A0008711A0008711A0008711A000864
:10005000711A0008E1170008711A0008711A0008E7
:10006000711A0008711A0008711A0008711A000844
:10007000711A0008711A0008711A0008711A000834
:10008000711A0008711A0008711A0008711A000824
:10009000711A0008711A0008711A0008711A000814
:1000A000711A0008711A0008711A0008711A000804
:1000B000711A0008711A0008711A0008711A0008F4
:1000C000711A0008711A0008711A0008711A0008E4
:1000D000711A0008711A0008711A0008711A0008D4
:1000E000711A0008711A0008711A0008711A0008C4
:1000F000711A0008711A0008711A0008711A0008B4
:10010000711A0008E5170008711A0008711A000832
:10011000711A0008711A0008F1170008711A000816
:10012000711A0008711A0008711A0008711A000883
:10013000711A0008711A0008711A0008711A000873
:10014000711A0008711A0008711A0008711A000863
:10015000711A0008711A0008711A0008711A000853
:10016000711A0008711A0008711A0008711A000843
:10017000711A0008711A0008711A000800000000C6
:10018000711A0008711A0008711A0008711A000823
:10019000711A0008711A0008711A0008711A000813
:1001A000FD170008711A000809180008711A0008E4
:1001B000711A0008711A0008711A0008711A0008F3
:0801C000711A0008711A000811
:1001D00010B5054C237833B9044B13B10448AFF381
:1001E00000800123237010BD402800200000000083
:1001F00000C4010808B5034B1BB103490348AFF322
:10020000008008BD000000004428002000C4010850
:10021000034613F8012B002AFBD1181A0138704746
:1002200001F0FF01102A2BDB10F0070F08D010F8A7
:10023000013B013A8B422DD010F0070F42B3F6D1AB
:10024000F0B441EA012141EA014122F007047FF0C4
:1002500000070023F0E80256083C85EA010586EA1B
:10026000010685FA47F5A3FA87F586FA47F6A5FA57
:1002700087F68EB9EED1F0BC01F0FF0102F0070263
:1002800032B110F8013B013A83EA010313B1F8D10E
:100290000020704701387047002D06BF35460338EF
:1002A000073815F0010F07D1013015F4807F02BF28
:1002B000013015F4C03F0130F0BC0138704700BF79
:1002C00081F0004102E000BF83F0004330B54FEA07
:1002D00041044FEA430594EA050F08BF90EA020F74
:1002E0001FBF54EA000C55EA020C7FEA645C7FEA07
:1002F000655C00F0E2804FEA5454D4EB5555B8BF2A
:100300006D420CDD2C4480EA020281EA030382EA9A
:10031000000083EA010180EA020281EA0303362D2C
:1003200088BF30BD11F0004F4FEA01314FF4801CFF
:100330004CEA113102D0404261EB410113F0004F11
:100340004FEA03334CEA133302D0524263EB4303C8
:1003500094EA050F00F0A780A4F10104D5F1200E66
:100360000DDB02FA0EFC22FA05F2801841F10001C1
:1003700003FA0EF2801843FA05F359410EE0A5F195
:1003800020050EF1200E012A03FA0EFC28BF4CF0C6
:10039000020C43FA05F3C01851EBE37101F000457C
:1003A00007D54FF0000EDCF1000C7EEB00006EEB89
:1003B0000101B1F5801F1BD3B1F5001F0CD3490813
:1003C0005FEA30004FEA3C0C04F101044FEA44526A
:1003D00012F5800F80F09A80BCF1004F08BF5FEAF1
:1003E000500C50F1000041EB045141EA050130BDD1
:1003F0005FEA4C0C404141EB0101013C28BFB1F5E3
:10040000801FE9D291F0000F04BF01460020B1FA2D
:1004100081F308BF2033A3F10B03B3F120020CDA00
:100420000C3208DD02F1140CC2F10C0201FA0CF0DE
:1004300021FA02F10CE002F11402D8BFC2F1200C43
:1004400001FA02F120FA0CFCDCBF41EA0C019040F9
:10045000E41AA2BF01EB0451294330BD6FEA040442
:100460001F3C1CDA0C340EDC04F11404C4F120022D
:1004700020FA04F001FA02F340EA030021FA04F33F
:1004800045EA030130BDC4F10C04C4F1200220FA96
:1004900002F001FA04F340EA0300294630BD21FAD4
:1004A00004F0294630BD94F0000F83F4801306BF9A
:1004B00081F480110134013D4EE77FEA645C18BF8E
:1004C0007FEA655C29D094EA050F08BF90EA020F25
:1004D00005D054EA000C04BF1946104630BD91EA1D
:1004E000030F1EBF0021002030BD5FEA545C05D120
:1004F0004000494128BF41F0004130BD14F580045F
:100500003CBF01F5801130BD01F0004545F0FE41D2
:1005100041F470014FF0000030BD7FEA645C1ABF07
:10052000194610467FEA655C1CBF0B46024650EA3E
:10053000013406BF52EA033591EA030F41F400216A
:1005400030BD00BF90F0000F04BF0021704730B5F0
:100550004FF4806404F132044FF000054FF00001C5
:1005600050E700BF90F0000F04BF0021704730B586
:100570004FF4806404F1320410F0004548BF40425B
:100580004FF000013EE700BF42004FEAE2014FEAB0
:1005900031014FEA02701FBF12F07F4393F07F4F8B
:1005A00081F06051704732F07F4208BF704793F08E
:1005B0007F4F04BF41F40021704730B54FF46074A1
:1005C00001F0004521F000411CE700BF50EA0102A4
:1005D00008BF704730B54FF000050AE050EA01024D
:1005E00008BF704730B511F0004502D5404261EBBD
:1005F00041014FF4806404F132045FEA915C3FF4FE
:10060000D8AE4FF003025FEADC0C18BF03325FEA9A
:10061000DC0C18BF033202EBDC02C2F1200300FA4B
:1006200003FC20FA02F001FA03FE40EA0E0021FA70
:1006300002F11444BDE600BF70B54FF0FF0C4CF45E
:10064000E06C1CEA11541DBF1CEA135594EA0C0F10
:1006500095EA0C0F00F0DEF82C4481EA030621EA4B
:100660004C5123EA4C5350EA013518BF52EA033586
:1006700041F4801143F4801338D0A0FB02CE4FF038
:100680000005E1FB02E506F00042E0FB03E54FF068
:100690000006E1FB03569CF0000F18BF4EF0010E60
:1006A000A4F1FF04B6F5007F64F5407404D25FEA5C
:1006B0004E0E6D4146EB060642EAC62141EA55510F
:1006C0004FEAC52040EA5E504FEACE2EB4F1FD0C51
:1006D00088BFBCF5E06F1ED8BEF1004F08BF5FEACF
:1006E000500E50F1000041EB045170BD06F0004681
:1006F00046EA010140EA020081EA0301B4EB5C042E
:10070000C2BFD4EB0C0541EA045170BD41F4801125
:100710004FF0000E013C00F3AB8014F1360FDEBF4A
:10072000002001F0004170BDC4F10004203C35DA26
:100730000C341BDC04F11404C4F1200500FA05F3A9
:1007400020FA04F001FA05F240EA020001F000424A
:1007500021F0004110EBD37021FA04F642EB0601C0
:100760005EEA430E08BF20EAD37070BDC4F10C04EA
:10077000C4F1200500FA04F320FA05F001FA04F2AE
:1007800040EA020001F0004110EBD37041F100019A
:100790005EEA430E08BF20EAD37070BDC4F12005A5
:1007A00000FA05F24EEA020E20FA04F301FA05F20D
:1007B00043EA020321FA04F001F0004121FA04F2B5
:1007C00020EA020000EBD3705EEA430E08BF20EA85
:1007D000D37070BD94F0000F0FD101F000464000BF
:1007E00041EB010111F4801F08BF013CF7D041EA41
:1007F000060195F0000F18BF704703F00046520045
:1008000043EB030313F4801F08BF013DF7D043EA15
:100810000603704794EA0C0F0CEA135518BF95EACB
:100820000C0F0CD050EA410618BF52EA4306D1D152
:1008300081EA030101F000414FF0000070BD50EA71
:10084000410606BF1046194652EA430619D094EAFB
:100850000C0F02D150EA013613D195EA0C0F05D1E5
:1008600052EA03361CBF104619460AD181EA030139
:1008700001F0004141F0FE4141F470014FF00000F1
:1008800070BD41F0FE4141F4780170BD70B54FF08C
:10089000FF0C4CF4E06C1CEA11541DBF1CEA13550C
:1008A00094EA0C0F95EA0C0F00F0A7F8A4EB0504EE
:1008B00081EA030E52EA03354FEA013100F08880E5
:1008C0004FEA03334FF0805545EA131343EA1263AE
:1008D0004FEA022245EA111545EA10654FEA002663
:1008E0000EF000419D4208BF964244F1FD0404F51C
:1008F000407402D25B084FEA3202B61A65EB030578
:100900005B084FEA32024FF480104FF4002CB6EB34
:10091000020E75EB030E22BFB61A754640EA0C00B4
:100920005B084FEA3202B6EB020E75EB030E22BFF4
:10093000B61A754640EA5C005B084FEA3202B6EB35
:10094000020E75EB030E22BFB61A754640EA9C00F4
:100950005B084FEA3202B6EB020E75EB030E22BFC4
:10096000B61A754640EADC0055EA060E18D04FEA82
:10097000051545EA16754FEA06164FEAC30343EA22
:1009800052734FEAC2025FEA1C1CC0D111F4801FEF
:100990000BD141EA00014FF000004FF0004CB6E7E8
:1009A00011F4801F04BF01430020B4F1FD0C88BF87
:1009B000BCF5E06F3FF6AFAEB5EB030C04BFB6EB92
:1009C000020C5FEA500C50F1000041EB045170BD85
:1009D0000EF0004E4EEA113114EB5C04C2BFD4EBB2
:1009E0000C0541EA045170BD41F480114FF0000E36
:1009F000013C90E645EA060E8DE60CEA135594EAB2
:100A00000C0F08BF95EA0C0F3FF43BAF94EA0C0FB4
:100A10000AD150EA01347FF434AF95EA0C0F7FF429
:100A200025AF104619462CE795EA0C0F06D152EA7D
:100A300003353FF4FDAE1046194622E750EA410661
:100A400018BF52EA43067FF4C5AE50EA41047FF472
:100A50000DAF52EA43057FF4EBAE12E74FF0FF3CD7
:100A600006E000BF4FF0010C02E000BF4FF0010CA8
:100A70004DF804CD4FEA410C7FEA6C5C4FEA430C21
:100A800018BF7FEA6C5C1BD001B050EA410C0CBF70
:100A900052EA430C91EA030F02BF90EA020F0020D2
:100AA000704710F1000F91EA030F58BF994208BF39
:100AB00090422CBFD8176FEAE37040F001007047F6
:100AC0004FEA410C7FEA6C5C02D150EA013C07D14D
:100AD0004FEA430C7FEA6C5CD6D152EA033CD3D098
:100AE0005DF8040B704700BF8446104662468C4692
:100AF0001946634600E000BF01B5FFF7B7FF0028C5
:100B000048BF10F1000F01BD4DF808EDFFF7F4FFED
:100B10000CBF012000205DF808FB00BF4DF808ED78
:100B2000FFF7EAFF34BF012000205DF808FB00BF9B
:100B30004DF808EDFFF7E0FF94BF012000205DF8BD
:100B400008FB00BF4DF808EDFFF7CEFF94BF012072
:100B500000205DF808FB00BF4DF808EDFFF7C4FF6B
:100B600034BF012000205DF808FB00BF4FEA410CB4
:100B70007FEA6C5C02D150EA013C0AD14FEA430C97
:100B80007FEA6C5C02D152EA033C02D14FF00000D4
:100B900070474FF0010070474FEA410212F5001212
:100BA00015D211D56FF47873B3EB625212D94FEAB4
:100BB000C12343F0004343EA505311F0004F23FA9E
:100BC00002F018BF404270474FF00000704750EAF3
:100BD000013005D111F0004008BF6FF000407047B0
:100BE0004FF00000704700BF4FEA4102B2F1E0430E
:100BF00024BFB3F5001CDCF1FE5C0DD901F0004C04
:100C00004FEAC0024CEA5070B2F1004F40EB830053
:100C100008BF20F00100704711F0804F21D113F17F
:100C20003872BCBF01F00040704741F480114FEAB8
:100C30005252C2F11802C2F1200C10FA0CF320FA41
:100C400002F018BF40F001004FEAC1234FEAD3235E
:100C500003FA0CFC40EA0C0023FA02F34FEA4303C8
:100C6000CCE77FEA625307D150EA01331EBF4FF051
:100C7000FE4040F44000704701F0004040F0FE406C
:100C800040F40000704700BF53B94AB9002908BFBB
:100C900000281CBF4FF0FF314FF0FF3000F074B957
:100CA000ADF1080C6DE904CE00F006F8DDF804E0C3
:100CB000DDE9022304B070472DE9F047089D0446A2
:100CC0008E46002B4DD18A42944669D9B2FA82F2FF
:100CD00052B101FA02F3C2F1200120FA01F10CFA3B
:100CE00002FC41EA030E94404FEA1C48210CBEFB73
:100CF000F8F61FFA8CF708FB16E341EA034306FBFC
:100D000007F199420AD91CEB030306F1FF3080F08A
:100D10001F81994240F21C81023E63445B1AA4B2D7
:100D2000B3FBF8F008FB103344EA034400FB07F779
:100D3000A7420AD91CEB040400F1FF3380F00A81BA
:100D4000A74240F207816444023840EA0640E41BAF
:100D500000261DB1D4400023C5E900433146BDE85B
:100D6000F0878B4209D9002D00F0EF800026C5E9FD
:100D7000000130463146BDE8F087B3FA83F6002E15
:100D80004AD18B4202D3824200F2F980841A61EB8D
:100D9000030301209E46002DE0D0C5E9004EDDE7AB
:100DA00002B9FFDEB2FA82F2002A40F09280A1EB93
:100DB0000C014FEA1C471FFA8CFE0126200CB1FBE8
:100DC000F7F307FB131140EA01410EFB03F08842E1
:100DD00008D91CEB010103F1FF3802D2884200F26E
:100DE000CB804346091AA4B2B1FBF7F007FB101100
:100DF00044EA01440EFB00FEA64508D91CEB04049E
:100E000000F1FF3102D2A64500F2BB800846A4EBF8
:100E10000E0440EA03409CE7C6F12007B34022FAE3
:100E200007FC4CEA030C20FA07F401FA06F31C4312
:100E3000F9404FEA1C4900FA06F3B1FBF9F8200C1F
:100E40001FFA8CFE09FB181140EA014108FB0EF065
:100E5000884202FA06F20BD91CEB010108F1FF3AB5
:100E600080F08880884240F28580A8F102086144C1
:100E7000091AA4B2B1FBF9F009FB101144EA0141CF
:100E800000FB0EFE8E4508D91CEB010100F1FF347A
:100E90006CD28E456AD90238614440EA0840A0FB12
:100EA0000294A1EB0E01A142C846A64656D353D0E8
:100EB0005DB1B3EB080261EB0E0101FA07F722FA0C
:100EC00006F3F1401F43C5E9007100263146BDE835
:100ED000F087C2F12003D8400CFA02FC21FA03F398
:100EE000914001434FEA1C471FFA8CFEB3FBF7F019
:100EF00007FB10360B0C43EA064300FB0EF69E423E
:100F000004FA02F408D91CEB030300F1FF382FD2D6
:100F10009E422DD9023863449B1B89B2B3FBF7F67E
:100F200007FB163341EA034106FB0EF38B4208D957
:100F30001CEB010106F1FF3816D28B4214D9023E98
:100F40006144C91A46EA004638E72E46284605E7B6
:100F50000646E3E61846F8E64B45A9D2B9EB020887
:100F600064EB0C0E0138A3E74646EAE7204694E717
:100F70004046D1E7D0467BE7023B614432E730464A
:100F800009E76444023842E7704700BF10B5034CDC
:100F9000234605F0C3FD206810BD00BF5C2800207B
:100FA0002DE9F341284D0127284906462A68284B98
:100FB000DFF8B08001FB0233264C4FF48032C8F8D2
:100FC000003000232046E3602363C4E90123FF22AD
:100FD000C4E90A37204B6263236001F055FF90B9E2
:100FE0003946204602F0A4F868B94FF4A073D8F847
:100FF000002031462046009701F072FF18B90A21FF
:10100000204601F087FF0020144F154E2B6807FB88
:101010000363034401309B00B0F5A07F19684FEAD9
:101020000144C1F3074201F0FF2104F47F0442EAC6
:10103000040242EA01021A60E8D12B680020013B59
:101040002B6002B0BDE8F0810000002000FBFFFF34
:1010500000AB04C02C2D002000B00240C0FEFF3FBA
:10106000C02A01300400002010B54FF4803392B044
:101070000121022419201094CDE906134FF48003B6
:10108000CDE90C434FF4C873CDE90E03082306A83D
:10109000119302F095FB00B1FEE702F059FB00B19D
:1010A000FEE70F234FF4A0520390062101A8CDE9DB
:1010B00001344FF48053CDE9042302F06DFD00B1FB
:1010C000FEE712B010BD000010B514464FF0FF331C
:1010D00092B2024804F0CFF8204610BD982E0020AE
:1010E0000268034B9A4201D101F09CBC704700BFDB
:1010F0000010004008B5322001F0A6FCFBE700001C
:1011000070B586B000211022012502A8002418F035
:10111000D3FA01F0FDFC4FF01042894B02A8ADF864
:1011200008500594CDE9032301F010FD172302A810
:101130008DF809508DF810308DF8165001F006FD2D
:10114000042001F0F3FCBFF34F8FBFF36F8F7D4A94
:10115000C2F85042BFF34F8FBFF36F8F536943F410
:1011600000335361BFF34F8FBFF36F8FC2F88440DA
:10117000BFF34F8FD2F8803043F6E074C3F3C90059
:10118000C3F34E335B0103EA0406014646EA817568
:101190000139C2F86052F9D2203B13F1200FF2D18D
:1011A000BFF34F8F536943F480335361BFF34F8FC5
:1011B000BFF36F8F01F024FC0125FFF755FF624854
:1011C000624B0562036000238380C0E9053301F0B0
:1011D000E9FC044608B1FFF78DFF00F04BFC01F07D
:1011E0000FF901F041F84FF04041204600F0C4FEF5
:1011F000204600F0FBFEF0232246214620460093C5
:101200004FF4A073524C00F0F7FE4FF07F4000F017
:1012100023FF504819F028F828464F4901F012F8EA
:101220004E4902204E4D01F00DF84E49032001F0C9
:1012300009F840F6B83001F007FC4B494B4805F07F
:10124000BBFD0246A8B94849494805F023FB80B9CF
:1012500001224849284605F05DFB50B9204600F0C0
:10126000FBFE0520444900F0EDFF4FF4FA6001F069
:10127000EBFB204600F0F0FE4049052000F0E2FFC5
:101280003F49072000F0DEFF4FF4FA6001F0DCFB7D
:101290003C4B3D4A4FF4A071284600F07BFB4FF4D5
:1012A000FA6001F0D1FB204600F0D6FE3749052058
:1012B00000F0C8FF4FF4FA6001F0C6FB284605F0C5
:1012C00042FD204600F0C8FE3149032000F0BAFF7D
:1012D0003049042000F0B6FF2F49052000F0B2FF8E
:1012E00041F2883001F0B0FB4FF4A0712B4800F0C0
:1012F000E7FA2B4800F0B0FE2A49052000F0A2FFD3
:101300002949072000F09EFF44F6206001F09CFB75
:1013100000F0ECFB25490246254818F0BDFF4FF0D0
:10132000FF2000F099FE2349032000F08BFF2049A5
:10133000052000F087FF41F2883001F085FB7CE753
:101340001B00000300ED00E0C82C0020003002402C
:10135000FF0000FF30C401083FC401085CC401085D
:101360006028002069C40108702F0020E0970F0852
:10137000942A00207DC4010887C401088CC4010898
:101380009CC40108A10F000838110020ADC4010859
:10139000BDC40108CCC40108D0C401084119002013
:1013A0000000FFFFD8C40108E0C40108EFC4010831
:1013B00050190020F6C40108124B07B51A6C0F2112
:1013C0006FF0010042F080521A641A6C02F08052F1
:1013D0000092009A5A6C42F480425A6400225B6C7C
:1013E00003F480430193019B01F052FB052100228D
:1013F000084601F04DFB052003B05DF804EB01F059
:1014000079BB00BF00380240026882B0084B9A42A4
:101410000BD1D3F8302803F5006342F480521A63ED
:101420001B6B03F480530193019B02B0704700BF14
:10143000003002400E4B07B502689A4215D1A3F561
:10144000F04305215A201A6B42F400021A6300226D
:101450001B6B03F400030193019B01F019FB5A205D
:1014600003B05DF804EB01F045BB03B05DF804FB8D
:1014700000B0024070B5ACB004461422002106A8AA
:1014800018F01AF9842200210BA818F015F9226827
:10149000464B9A4240F0878008230BA80B933223D7
:1014A00010930223CDE911330123159302F042FC7E
:1014B00008B1FFF71FFE3E4B002402250E265A6C92
:1014C00006A93C4842F080625A645A6C02F080627D
:1014D0000092009A1A6B42F010021A631A6B02F023
:1014E00010020192019A1A6B42F400721A631A6B8D
:1014F00002F400720292029A1A6B42F480621A633A
:101500001A6B02F480620392039A1A6B42F0400253
:101510001A631A6B02F040020492049A1A6B42F4A6
:1015200080721A631B6B03F480730593059B102371
:10153000CDE90635CDE908440A9601F041FE4EF6A4
:10154000FF7306A91C480A96CDE90635CDE9084483
:1015500001F036FEF72306A918480A96CDE90635AC
:10156000CDE9084401F02CFE4FF4805306A914483D
:10157000CDE906350923CDE908440A9301F020FEA0
:101580004FF4464306A90F480A96CDE90635CDE942
:10159000084401F015FE58202246052101F078FA92
:1015A000582001F0A7FA2CB070BD00BF00680140C0
:1015B000003802400010024000240240002802408F
:1015C0000018024000200240F0B5ABB004461422DF
:1015D000002104A818F070F88422002109A818F04E
:1015E0006BF82268254B9A4245D14FF4200309A895
:1015F000099302F09FFB08B1FFF77CFD204B00240C
:10160000022703265A6C0C2504A91E4842F40062E6
:101610005A645A6C02F400620192019A1A6B42F009
:1016200004021A631A6B02F004020292029A1A6B05
:1016300042F008021A631B6B089503F0080303933A
:10164000039B4FF4F853CDE90646CDE9043701F08A
:10165000B7FD042304A90C480895CDE90437CDE96A
:10166000064601F0ADFD31202246052101F010FAB9
:10167000312001F03FFA2BB0F0BD00BF002C01403B
:101680000038024000080240000C0240F0B5002380
:1016900087B00393294B1E68002E4DD101220227EB
:1016A00003250C241A6001A9254B26489A6B42F0A9
:1016B00001029A639B6B03F001030093009B4FF6BA
:1016C0008373CDE90454CDE9013701F079FD48F287
:1016D000331301A91C480594CDE90137CDE9036511
:1016E00001F06EFD4CF2037301A918480594CDE991
:1016F0000137CDE9036501F063FD4FF63F0301A912
:1017000013480594CDE90137CDE9036501F058FD93
:10171000282301A90F480594CDE90137CDE90365D8
:1017200001F04EFD082301A90B480594CDE90137CE
:10173000CDE9036501F044FD07B0F0BD1C2F00208A
:10174000003802400010024000180240000C024025
:1017500000140240001C02400008024010B501467F
:1017600088B00022362001F093F9362001F0C2F94A
:10177000144B01A903A81A6C134C42F010021A640E
:101780001B6C03F010030293029B02F0B5FA02F007
:10179000A3FA0E4B4000236040F2E733E3600C4BAA
:1017A000B0FBF3F001380023606020462361A360A2
:1017B00003F0D0FC20B9204603F074FB08B010BD44
:1017C0000120FBE700380240202F002000100040DD
:1017D00040420F007047FEE7FEE7FEE7FEE7704776
:1017E00070470000014803F003BA00BF142E002028
:1017F000014803F099BB00BF202F0020014801F0F1
:10180000C4BE00BF6C2D0020014801F006BC00BF23
:10181000EC2C00200B4A0346116810B509B90A499F
:101820001160106809490A4C0344091B8B4206D910
:1018300017F008FE0C2303604FF0FF3010BD13605B
:10184000FCE700BF6C2F0020D834022000000520E8
:10185000000A000000207047704708B5FFF7FCFF42
:1018600008BD704708B5FFF7FCFF08BD704708B515
:10187000FFF7FCFF08BD0000F0B50E4E00F1960723
:101880000D4B328818600D4C134681785D1CE15475
:10189000ADB290F801C0991C033304F805C089B2B9
:1018A00010F8035B9BB2B8426554EED19632328099
:1018B000F0BD00BF90230020902A0020C81900200E
:1018C00037B52C4C002301222B49201DCDE90033D4
:1018D00005F020F8054638B1284C294818F0C4FC1A
:1018E000204618F03BFCFBE7264B04F50D700093F7
:1018F0000CF010FE4FF4F4725021C4F8B80204F555
:101900002E7006F00CFD211D04F52E7007F0B8FCBA
:10191000012104F52E7006F00BFE0223012204F5CE
:101920002E7084F800330823C4E9B92306F0A4FE1E
:101930001548D4E9CA1218F011FC258004F52E755B
:10194000D4F84423D4F82C339A420AD30F4806F033
:1019500011FE0E4806F030FD0D4805F0F4F903B015
:1019600030BD01226946284606F0CFFE0098FFF7F9
:1019700083FFE5E7902300207DC401080CC5010822
:10198000FBC401083811002015C5010848260020B5
:1019900094230020F7B5204C1E460023074604F58B
:1019A0000D700D46CDE900230CF0B4FD4FF4F47238
:1019B0005021C4F8B80204F52E7005EB450506F079
:1019C000AEFC394604F52E7004F52E7707F058FC6E
:1019D000012104F52E7006F0ABFD022304F52E70F4
:1019E00084F8003306F048FED4F84423D4F82C33AE
:1019F0009A4209D269460122384606F086FE2946F7
:101A00000098B0470028EFD0044806F0B3FD034823
:101A100006F0D2FC03B0F0BD902300204826002041
:101A2000DFF834D0002103E00C4B5B584350043105
:101A30000B480C4B42189A42F6D30B4A02E00023A3
:101A400042F8043B094B9A42F9D300F0B3FF17F078
:101A5000F5FDFFF755FB704700000520DCBC0F08C3
:101A6000000000203411002040280020D43402203F
:101A7000FEE7000037B5144C144818F0F5FB144984
:101A80000022204600F0BEF910F0FF0106D0030A44
:101A90000A461048104918F061FBFEE70F4D206818
:101AA000019100F063F801992860206800F068F85F
:101AB0000B4B18602B685A680A4B1A6042680A4B35
:101AC0001A6003B030BD00BF842F002026C5010876
:101AD000080000205EC5010843C50108742F0020DE
:101AE000782F00207C2F0020802F002008B5104880
:101AF00018F0BAFB0F4B1868B0B10F4B0F4A1A60C1
:101B00000F4B1A680F4B196800F0C3F9012800D079
:101B1000FEE70D4B1B7807EE903AF8EE677AFDEE84
:101B2000E77A17EE900A08BDDFED087AF7E700BF05
:101B300090C50108842F00207C2F0020C8190020A8
:101B4000782F0020742F0020802F00200000C8C2B2
:101B500007B505230022CDE900320123024A14F023
:101B6000F1F903B05DF804FB740E002010B90248CF
:101B7000024B036013F00CBF740E00200001C0A1E3
:101B800010B90248024B036014F072B8740E0020C2
:101B90000001C0A12DE9F8430746884614F086FBF2
:101BA0000446002800F0E280774E4246012130468C
:101BB00013F02CFD0546002800F0DA80734A136804
:101BC00043F0804313603368C2E90233704A03F57F
:101BD0006B36116841F08041116003F51071C2E964
:101BE00002116C4A116841F08041116003F52071C7
:101BF000C2E90211684A116841F08041116003F5A1
:101C00009541C2E90211654A116841F080411160B5
:101C100003F59641C2E90211614A116841F0804121
:101C2000116003F5B53101F58071C2E902115D4A19
:101C3000116841F08041116003F5B631C2E902112B
:101C4000594A116841F080411160C2E90266574A61
:101C500006F58076116841F0804111605449C2E96F
:101C600002660A6842F080420A6003F53A2202F5F1
:101C7000506002F57062C1E902004E490868C1E98E
:101C8000022240F080404C4A0860116841F08041D7
:101C9000116003F55A2103F55B2301F57061C2E978
:101CA0000211464A116841F08041116003F540710C
:101CB00003F5E063C2E90211414A116841F0804135
:101CC000C2E902331160DFF83891424601214846EB
:101CD00013F0F4FC0646002850D0D9F800303949FA
:101CE00003F51642A832C1E9022203F53D42364906
:101CF000B832C1E9022203F56C61344AC2E902112B
:101D000003F52B41324AC2E90211324A03F5A941D7
:101D1000C2E90233304AC2E9021103F5DD412F4A1C
:101D2000C2E902112E4A03F56061C2E902332D4A6D
:101D3000C2E902112C4A03F50071C2E902332B4AB1
:101D4000C2E9021103F580622949C1E90222294949
:101D5000C1E902332849C1E90222284AC2E9023313
:101D6000384614F01FFC30402840C0B2BDE8F8836C
:101D700012223021204613F005FEA4E71322302161
:101D8000204613F0FFFDEBE7E8060120A00B002042
:101D9000C00A002060080020800700206C09002095
:101DA0008C080020940A002098090020180E0020BA
:101DB000A40D0020400C0020CC0B00202C0D002096
:101DC000B80C0020DC0E0020740B0020480B002013
:101DD00034080020080800204009002014090020D1
:101DE000680A00203C0A0020EC0D0020640E002050
:101DF000140C00208C0C0020000D0020780D002019
:101E0000E40601202DE9F04388468FB00021064604
:101E10001746FFF79DFE10F0FF09044601D020464B
:101E200006E0684600F038F828B9306813F0B8FCCE
:101E30000FB0BDE8F083B8F1000F1AD13FBB69467F
:101E40003068FFF7A7FE28B9306813F0A9FC0446F4
:101E50005FFA80F969F30704E1E758F8252029467D
:101E6000013503A813F0BEFBBDF80E30AB42F4DC25
:101E7000E4E74D46F8E757F825202946013501A843
:101E800013F0B0FBBDF80630AB42F4DCD7E7002519
:101E9000F8E714F093BC000030B5034685B070B18C
:101EA000084C6A4602AD94E8030082E80300D4E9D6
:101EB000020185E803002946184613F057FC05B0D7
:101EC00030BD00BF20C401082DE9F3471A4C9846E5
:101ED0004FF440330E461746342163608146174B5A
:101EE0002046DDF82CA01A68154B01FB02339D6CCF
:101EF0000A9B022DE36018BF0025124BA5602360EA
:101F000000F0C2FFA0B94946204601F011F978B9A6
:101F10003B46324651462046CDF8008000F0E0FFB7
:101F200030B90A21204602B0BDE8F04700F0F2BF08
:101F300002B0BDE8F08700BF08070120EC060120D1
:101F40004807012000B00240034B34211A68034BBC
:101F500001FB0233186E7047EC0601204807012090
:101F6000034B34211A68034B01FB0233586E704750
:101F7000EC0601204807012070B500258EB00E4602
:101F800004460195FFF7E0FFCDE90205FFF7E8FF02
:101F9000FF234FF4C0620A96ADF834508DF83650E6
:101FA000CDE906350723CDE90405CDE90823FFF780
:101FB000CBFF0B90FFF7D4FF224601A90C900848F5
:101FC00001F040FB0C22074B4FF0FF3154431A192C
:101FD0005160054991604FF07F421A510EB070BDBB
:101FE00048070120F0060120440F0020014B186033
:101FF000704700BFEC0601202DE9F041094F04466F
:102000000D4616461946BDF818200346384601F01D
:1020100046FB2346324629463846BDE8F04101F0EA
:102020006BBB00BF48070120034B0C211A68034B10
:1020300001FB023398607047EC060120F006012096
:10204000034B0C211A68034B01FB0233986870475D
:10205000EC060120F006012030B50C4B85B004469B
:102060001D68FFF771FF0390FFF77AFF08490346E9
:1020700034200194039A00FB0511002000902846AB
:10208000C96DFFF721FF05B030BD00BFEC06012090
:10209000480701200D4B2DE9F0411B6814460C4EFA
:1020A000342205460F4602FB0366FFF74DFF00FB97
:1020B0000750B36CD6F85C80022B04D1A4B228F888
:1020C0001040BDE8F08148F82040FAE7EC06012016
:1020D000480701202DE9F04F2D4B85B0203A4FF0F5
:1020E0000008D3F800B0CDE900010C20294900FB1D
:1020F0000B118968B1F80490B1F806A009F1070640
:102100000D680AFB02F2F610C9EBC60006FB025589
:1021100009F1FF3252FA80F30293019BD04503EBA1
:10212000080189B202D305B0BDE8F08F012E2C78EA
:1021300004D0022E09D12C8864BAA4B20027B94574
:102140000AD808F101083544E7E76A78240444EA2C
:102150000224AA781443F1E7009B01220391D819C5
:10216000029BA3EB070C80B2013702FA0CF2224269
:102170004FF00C020DBF074B02FB0BF2054B02FBAD
:102180000B3214BF9A585268FFF784FF0399D6E7C1
:10219000EC060120F00601202DE9F843994605469A
:1021A0000F46164613461C4613F8012B002AFAD197
:1021B000FFF7CAFE214B0C21B9F1010F1A68204B21
:1021C00001FB0233D3F80880B8F80430B0FBF3F019
:1021D0001DD0B9F1020F21D02BB20024002BD8BFA3
:1021E0000125FFF7B1FEB8F80430A2B216F804904A
:1021F000013403FB120080B2984234BF002001205A
:10220000B9F1000F08BF002070B9BDE8F883341B96
:102210002044584305EB500085B2DDE7341B0444ED
:1022200014FB03F4601BF7E728464A463946FFF7DC
:1022300051FFB8F80400284485B2D2E7EC0601202B
:10224000F006012013B504460191FFF7F9FEC3889B
:10225000019A002013FB04F1032389B202B0BDE808
:102260001040FFF799BF000008B5094B4FF48051AB
:1022700008481A68936943F001039361012201F051
:1022800089F8012208210448BDE8084001F082B81D
:102290004807012000200240002802404B4B4C48D8
:1022A0005A6C42F08062F0B55A648FB05A6C0224C6
:1022B0000E2509A902F080624FF48057454E009226
:1022C000009A1A6B42F400021A631A6B02F40002BD
:1022D0000192019A1A6B42F010021A631A6B02F013
:1022E00010020292029A1A6B42F040021A631A6BB1
:1022F00002F040020392039A1A6B42F480721A634E
:102300001A6B02F480720492049A1A6B42F40072FF
:102310001A631A6B02F400720592059A1A6B42F462
:1023200080621A631A6B02F480620692069A1A6B34
:1023300042F480721A631A6B02F480720792079A51
:102340001A6B42F480621A631B6B0D9503F4806371
:102350000893089B1023CDE909340023CDE90B3401
:1023600000F02EFF092309A91B480D93CDE909743C
:1023700000F026FF4FF4464309A930460D95CDE9FC
:10238000093400F01DFF4EF6FF7309A913480D959F
:10239000CDE9093400F014FFF72309A90D950125B3
:1023A000CDE909340E4C204600F00AFF09A9304659
:1023B00009970A9500F004FF082309A92046CDE9F2
:1023C000093500F0FDFE0FB0F0BD00BF003802403F
:1023D0000010024000200240001802400024024089
:1023E00000280240054808230360C02343610523F9
:1023F000C3614FF48033C36201F09CBCF00701203D
:1024000010B52822224C0923352140F21B1040F23E
:102410001D1CC4E905230B23C4E9071340F215234F
:102420000021C4E9093040F235232046C4E90B3CC1
:10243000FFF7D8FF4FF4F07E4FF488732046C4E9CD
:1024400018E30023A38684F83630C4E90133C4E9D5
:102450000333104B236001F078F9014610B9204690
:10246000FFF71CFF0A4801F021F801224FF48051C8
:10247000094800F08FFF01220821084800F08AFF78
:1024800000F05CFA0648FFF7CFFD002010BD00BF4A
:102490004807012000680140002002400028024057
:1024A000440F0020012307B54FF4005107488DF871
:1024B000073000F069FF012802D100238DF80730B2
:1024C0009DF8070003B05DF804FB00BF0008024060
:1024D00007B5009313460A460146044801F018FF69
:1024E000003818BF012003B05DF804FB3409012057
:1024F00007B5009313460A460146044802F004F863
:10250000003818BF012003B05DF804FB3409012036
:10251000524B5A6C42F400622DE9F04F5A648BB072
:102520005A6C032705464FF0040802F4006205A91F
:102530004B48002601924FF4804B019A4FF0200A3D
:102540001A6B4FF44039474C42F480021A631A6BFD
:1025500002F480020292029A1A6B42F004021A6399
:102560001A6B02F004020392039A1A6B42F00802FB
:102570001A6302221B6B03F008030493049B0123DC
:10258000CDE906230C23CDE908734FF4F8530593E6
:1025900000F016FE05A93448CDF8148000F010FEB6
:1025A00000220E21312000F073FA312000F0A2FA4F
:1025B0004FF480624FF000614FF480532B482C643D
:1025C00020602046E660A762A563C4E90423C4E94D
:1025D00001164FF400134FF40001C4E906BAC4E930
:1025E0000B13C4E9089800F0D1FB204600F04EFB25
:1025F0001F4C4FF480624FF48053A7624FF40007E2
:1026000040214FF00060EC63E660A563C4E9042359
:102610004FF40013C4E90B73164BC4E901012046C3
:102620002360C4E906BAC4E9089800F0AFFB20466D
:1026300000F02CFB32460F213B2000F029FA3B2012
:1026400000F058FA32460F21452000F021FA4520CB
:1026500000F050FA0BB0BDE8F08F00BF0038024028
:102660000008024074080120000C02405864024037
:10267000D4080120A06402407FB50D4B01210D4814
:102680001A6B42F004021A634FF400521B6B03F002
:1026900004030093009B0023CDE901230323CDE92C
:1026A000031301A900F08CFD07B05DF804FB00BF27
:1026B000003802400008024070B5134C0026134B4E
:1026C00031462046A661C4E90036C4E90266C4E981
:1026D0000466FFF7D1FFFFF7E5FE0128054611D19B
:1026E00020463146FFF714FF204602F095F938B92D
:1026F0004FF40061204602F0BDF9851B18BF01258B
:10270000284670BD0225FBE734090120002C01405A
:1027100008B5034802F038FA043818BF012008BD94
:10272000340901200146014802F091B93409012021
:102730002DE9F743214C0126214D4FF000081027C9
:10274000214681464FF6FF722846CDF80480C4E941
:102750000067C4E9026802F06DFB304600F074F9CE
:10276000022321464FF6FF722846C4E90037C4E928
:10277000026802F05FFB032321464FF6FF722846F2
:10278000C4E900370823C4E9023802F053FB4FF4D0
:10279000087321464FF6FF72019304232846A66072
:1027A000C4E90037019BE36002F044FB4946284638
:1027B00003B0BDE8F04302F05CBB00BFB8090120E4
:1027C000440A0120544B9A6B42F0010270B59A639F
:1027D0008EB09A6B064609A9504802F00102504C8F
:1027E00000250192019A1A6B42F480021A631A6B57
:1027F00002F480020292029A1A6B42F004021A63F7
:102800001A6B02F004020392039A1A6B42F0080258
:102810001A631A6B02F008020492049A1A6B42F0CF
:1028200010021A631A6B02F010020592059A1A6BD5
:1028300042F020021A631A6B02F020020692069AF6
:102840001A6B42F040021A631A6B02F040020792C0
:10285000079A1A6B42F080021A6301221B6B03F085
:1028600080030893089B0223CDE90A320C930C23C2
:102870000D930823099300F0A3FC4CF2037309A9FC
:102880002848099300F09CFC4FF6837309A9264859
:10289000099300F095FC4FF63F0309A923480993DB
:1028A00000F08EFC48F2331309A92148099300F087
:1028B00087FC282309A91F48099300F081FC802385
:1028C0004FF400714FF4805025633463E561A663D3
:1028D000C4E901534FF48063C4E903134FF4804308
:1028E000C4E905034FF400332046C4E90835032347
:1028F000C4E90A35104B236000F048FA204600F086
:10290000C5F92A460F21382000F0C2F8382000F01F
:10291000F1F80EB070BD00BF003802400008024060
:10292000E4090120000C02400010024000140240A3
:1029300000180240001C02401064024038B5194CD7
:102940000721194B0422194D4FF400602360022324
:10295000E260AB61C5E90031C5E90221C5E9043394
:10296000102240230021C4E904234FF48073A162A4
:10297000C4E906314FF48053C4E908032046C4E992
:102980000111FFF71FFF29462046094C02F032FAD9
:10299000003818BF0120207040F20360FFF7C8FE26
:1029A000207838BD440A0120400100A0C809012058
:1029B0004C0F00200F490020D1F8883043F47003F9
:1029C000C1F888300C4B1A6842F001021A60986016
:1029D0001A6822F0847222F480321A60074A5A6020
:1029E0001A6822F480221A60D8604FF000638B606E
:1029F000704700BF00ED00E00038024010300024B6
:102A0000074A032008B5136843F48073136000F08D
:102A10002DF80020FEF7A2FEFEF7CEFC002008BD38
:102A2000003C0240034A044B11681B780B441360BE
:102A3000704700BF780A0120540F0020014B18682E
:102A4000704700BF780A012038B50446FFF7F6FF4B
:102A50000546631C1EBF044B1B78E418FFF7EEFF0E
:102A6000431BA342FAD338BD540F00200749030289
:102A7000CA6803F4E06322F4E0621204120C134308
:102A800043F0BF6343F40033CB60704700ED00E0D8
:102A9000164B30B5DC68C4F30224C4F10705231DCE
:102AA000042D28BF0425062B4FF0FF338CBF033CB9
:102AB000002403FA05F5002803FA04F321EA0501CE
:102AC00022EA030201FA04F141EA02034FEA031386
:102AD000DBB206DB00F1604000F5614080F80033B6
:102AE00030BD00F00F00024A1354F9E700ED00E09A
:102AF00014ED00E0002808DB4209012300F01F006C
:102B000003FA00F0014B43F82200704700E100E0B7
:102B1000BFF35F8F044B5A6A22F480325A6200225C
:102B2000C3F89420704700BF00ED00E0064B40F072
:102B30000100C3F894005A6A42F480325A62BFF32B
:102B40004F8FBFF36F8F704700ED00E04378144A5A
:102B500010B5C2F898300178E9B14368C2F89C30EA
:102B6000C37A047B1B0643EA04730B43817A43EA6E
:102B7000C143417B43EA8143817B43EA4143C17BBB
:102B800043EA0143417A43EA0123017A43EA4103DC
:102B9000C2F8A03010BDC2F89C10C2F8A010F9E72E
:102BA00000ED00E010B5044608B9012010BD437FD8
:102BB00003F0FF0213B90277FEF726FC02236377C6
:102BC0002379E3B92368134A5A619A6822F01802FC
:102BD0009A6062792368D2B94FF0FF321A610020FF
:102BE0009A68616922F060020A43A1699A609A6852
:102BF00022F080020A439A6001236377D6E7D4E982
:102C00000212204600F008F80028E2D0CDE7226941
:102C1000E4E700BFB71DC1041F2310B5013B1CD35F
:102C200021FA03F4E407F9D5102A12D004D83AB1F6
:102C3000082A10D001200BE0182AFBD1062BF9D866
:102C400000684161836823F018031A438260002002
:102C500010BD072BF3E70F2BF1E7002AEAD1EFE7CE
:102C6000036802461820D9B21039B1FBF0F010B554
:102C7000054C5F29205CD06523F47F7020F00300B1
:102C800088BF0430906510BDD8970F0870B5044612
:102C9000FFF7D4FE0546002C73D00223226884F887
:102CA0003530002384F83430136823F001031360B7
:102CB00021680B68D8072FD40B68334DA0691D40DD
:102CC000D4E901231343E268134322691343626981
:102CD0001343E26903431343226A1343626A042ADB
:102CE00043EA050302BFD4E90B5635432B43042ABC
:102CF0000B604B6923F0070343EA020333D1A26A56
:102D0000E56A13437DB390B9012A21D032F0020263
:102D100029D1EA0127D51EE0FFF790FE401B0528C8
:102D2000C6D920230320636584F8350070BDB0F553
:102D3000005F14D1032A16D801A050F822F000BF7A
:102D4000572D0008132D0008572D0008512D00089D
:102D5000B5F1C07F07D1402301206365E4E7022A73
:102D6000F9D9032AD5D04B612046FFF779FFE26DF0
:102D70003F239340836000200123606584F8353051
:102D8000D4E70120D2E700BF3F8010F038B50546F8
:102D900020B390F83530022BDCB21DD0036800243C
:102DA0001A6822F001021A6021221C605C609C609B
:102DB000DC601C615A61FFF753FFEA6D3F239340CB
:102DC00083606C6585F8344085F83540C5E90F446B
:102DD000C5E91144C5E91344204638BD0124FBE789
:102DE00090F83530022B03D08023436501207047D3
:102DF0000268052380F835300020136823F00103B2
:102E00001360704770B50468049D666C45EA03431F
:102E100006F04046334363644368E263B3F5403FE2
:102E200030D186681EB1012E03D121F07F41A1630C
:102E300070BD022E01F47F0301F47F45C8B207D1B3
:102E4000DB0CA90ADB0243EA411343EAD001EEE7B7
:102E5000032E01F07F420AD1D90CED0A8902D30F6B
:102E600041EA451141EAD00141EAC331DFE7190DDA
:102E70002D0B0902130F41EA051141EA101141EA35
:102E80000331D4E7E160D3E710B5044630B390F8DE
:102E9000393003F0FF021BB980F83820FEF7CAFA78
:102EA000226802236168002084F83930136823F413
:102EB00040330B43A1681360536B23F007030B43AC
:102EC000E1685363136C23F47F5323F03F030B43F8
:102ED00013640123E06384F8393010BD0120FCE75E
:102EE00073B590F838500446012D4FF002050FD00D
:102EF00080F839500126069D80F838600095FFF76C
:102F000081FF2268002013683343136002B070BD54
:102F10002846FBE7002373B50193044603680D467A
:102F20001B68DB0717D42268D369526A13439E06D5
:102F300006D5FFF783FD064623685A68D20643D5B7
:102F40002368122200209A60012384F8380084F854
:102F5000393002B070BDFFF771FD064623685A682C
:102F60009207E0D45A680192019A12F0210F17D00B
:102F7000019A950603D5E26B42F00202E263019AE0
:102F8000D00703D5E26B42F00102E26321229A608E
:102F90000423012084F83930002384F83830D8E73E
:102FA000691CDCD0FFF74AFD801BA84201D8002D28
:102FB000D4D1E36B032043F02003E363002384F8C0
:102FC000390084F83830C4E75A680192019A12F047
:102FD000290F16D0019A160703D5E26B42F00402BE
:102FE000E263019A950603D5E26B42F00202E263C6
:102FF000019AD00703D5E26B42F00102E263292275
:10300000C5E7691C99D0FFF719FD801BA842D0D8ED
:10301000002D91D1CDE770477047036870B55E68A9
:1030200004461D68F20714D5E90512D51A6822F482
:1030300080721A60C26B42F00102C26301229A6080
:10304000042380F83930002380F83830436903B115
:103050009847B20616D5AB0414D523681A6822F433
:1030600000521A6020229A60E36B43F00203E3638C
:10307000042384F83930002384F8383063690BB1B5
:1030800020469847300716D5290514D523681A68B5
:1030900022F400621A6008229A60E36B43F0040392
:1030A000E363042384F83930002384F838306369FB
:1030B0000BB12046984772070BD56B0509D52368DD
:1030C00020461A6822F480621A6004229A60FFF790
:1030D000A2FFB00714D5A90512D523681A6822F4F7
:1030E00000721A6002229A60E36BE363012384F8A2
:1030F0003930002384F8383023690BB120469847D3
:10310000F20613D5EB0411D5236820461A6822F481
:1031100080521A6010229A60E36BE363012384F803
:103120003930002384F83830FFF776FF70BD000097
:10313000F0B590F83830012B4FF002032BD080F817
:103140003930012200EB01131C4F80F838200E01AA
:103150005D6AD3E9074244EA0242093C012C96BF6A
:1031600005F07F4342EA05621A430368A9B9596A28
:10317000012C01EA070142EA01025A6282699A615E
:1031800003D8426A22F07F429A62012380F83930E4
:10319000002380F838301846F0BDD969012C01EAC7
:1031A000070142EA0102DA6100EB060292691A6144
:1031B000EBD825F07F451D62E7E700BFF0FFFC007C
:1031C0002DE9F74F0023DFF8BC916C4A01240D680C
:1031D0009C4004EA050CAC4340F0B6804D684FEAD1
:1031E0004308032605F0030406FA08F6671EF643B3
:1031F000012F34D8876807EA060ECF6807FA08F768
:1032000047EA0E078760476827EA0C0EC5F30017E8
:103210009F4047EA0E074760C768022C07EA060E80
:103220008F6807FA08F747EA0E07C76019D14FEA17
:10323000D30A03F0070B4FF00F0E00EB8A0A4FEA98
:103240008B0BDAF820700EFA0BFE27EA0E0E0F69D0
:1032500007FA0BF747EA0E07CAF8207001E0032CC3
:10326000DAD1076804FA08F415F4403F06EA0706C5
:1032700046EA0406066067D0D9F8444023F0030606
:1032800003F003074FF00F0E44F4804406F180462C
:10329000BF00C9F8444006F59C36D9F8444004F410
:1032A00080440194019C0EFA07F4D6F8088028EABD
:1032B000040E334CA0424ED004F58064A0424CD0A2
:1032C00004F58064A0424AD004F58064A04248D04E
:1032D00004F58064A04246D004F58064A04244D046
:1032E00004F58064A04242D004F58064A04240D03E
:1032F00004F58064A0423ED004F58064A0420CBF77
:1033000009240A24BC40EF0244EA0E04B4606FEAC8
:103310000C06946854BF34404CEA0404AF02946035
:10332000D46854BF34404CEA0404AF03D4605468FA
:1033300054BF34404CEA0404ED035460146854BF95
:1033400034404CEA040414600133102B7FF43EAF88
:1033500003B0BDE8F08F0024D4E70124D2E70224B3
:10336000D0E70324CEE70424CCE70524CAE70624EB
:10337000C8E70724C6E70824C4E700BF003C0140B3
:1033800000000240003802400369194214BF0120C6
:10339000002070470AB1816170470904FBE7D20140
:1033A0000068D1F800C0843283182DE9F043C66864
:1033B0000CF101075D684FF0000E4C68C6F30B4638
:1033C00005F47045D1F8189026445D60C568C5F3D2
:1033D0000B453D4445EA0645CE685D60C568C5F3CA
:1033E0000A052E449D6805F470459D608D68C76888
:1033F0000135C7F30A073D4445EA06450E699D605D
:103400001D6925F007051D611E619D6991F83270E7
:1034100091F83180C3F818E091F8305045EA096519
:1034200045EA082545EA07459D615D6925F0FF05E8
:103430005D614D695D61DD6925F4E06525F0070595
:10344000DD61D1E907573D43DD619D6A4D6AC3F8EF
:1034500028E09D621EB3012E23D0B51E022D22D975
:10346000072E0CBF02250125DE6AA4EB0C0406F032
:10347000E0266C43DE6203348E6AC96A6E4344EA16
:103480000644DC621C6B24F4FF6424F007041C6314
:103490001963835843F001038350BDE8F08304258A
:1034A000E2E70325E0E70225DEE7000038B5044641
:1034B000002863D090F8A13003F0FF021BB980F818
:1034C000A020FDF7D7FF022384F8A13023689A6972
:1034D00022F070429A619969D4E901200243E068C0
:1034E00002432069024360690A4325499A619A6848
:1034F0000A409A609A6842EA0042A0690243E06981
:103500009A60DA680A40DA60DA6842EA0042206AC1
:103510000243606ADA601A690A401A611A6942EA6B
:103520000042A06A02431A615A6911405961E16A76
:103530005A6942EA0142216B0A435A61D96A94F8F6
:10354000360001F07F4194F83550D962D96A94F879
:1035500034200A4342EA052242EA00420020DA62AD
:103560005A6B42F006025A639A6942F001029A616C
:103570000123C4F8A40084F8A13038BD0120FCE781
:1035800000F800F0704770477047036870B59E6B95
:1035900004465D6B720714D5690712D55A6B22F089
:1035A00004025A630422DA63D0F8A43043F0010322
:1035B000C0F8A430002380F8A12080F8A030FFF7E5
:1035C000E1FFB20716D5AB0714D5236820465A6B26
:1035D00022F002025A630222DA63D4F8A4301343C1
:1035E000C4F8A430042384F8A130002384F8A03068
:1035F000FFF7C8FFF00710D5E9070ED5236820466E
:103600005A6B22F001025A630122DA63002384F824
:10361000A12084F8A030FFF7B6FF320711D52B07A1
:103620000FD5236820465A6B22F008025A630822FD
:10363000DA63012384F8A130002384F8A030FFF777
:10364000A3FF70BD2DE9F04190F8A03006460F466B
:103650009446012B4FF002001FD034244FF0010894
:103660000D4686F8A10004FB026486F8A080383479
:103670000FCD0FC40FCD0FC40FCD0FC42B68304634
:10368000624639462360FFF78AFE33680020C3F89C
:10369000248086F8A18086F8A000BDE8F081F8B506
:1036A00090F8A05004469E46012D4FF0020521D00F
:1036B00080F8A150342501275D4380F8A070461999
:1036C000B36B03EB010C336CC6E91812C6F83CC0AF
:1036D00005F1380103EB020C72460144C6F844C000
:1036E000FFF75DFE236800205F6284F8A17084F814
:1036F000A000F8BD2846FCE7F8B590F8A0500446B5
:103700009C46012D4FF002051DD080F8A1503425B4
:1037100001275D4380F8A0704619336EB1631944E8
:10372000C6E90F12716E0A4405F138017264014452
:103730006246FFF734FE236800205F6284F8A170C0
:1037400084F8A000F8BD2846FCE790F8A100704777
:10375000194B37B51A6C194C42F080521A641B6C25
:1037600003F080530193019B236843F4803323606B
:10377000FFF764F905466368DA030CD523680F4D3B
:1037800043F400332360FFF759F904466B689B0349
:103790000AD5002006E0FFF751F9401BB0F57A7F0B
:1037A000E9D9032003B030BDFFF748F9001BB0F59D
:1037B0007A7FEBD9F5E700BF003802400070004087
:1037C0002DE9F341044640B30368DB0710D42368B6
:1037D0009F0764D42368190700F1AA8023685A0759
:1037E00000F1CB80A269002A40F0348100202BE058
:1037F000964B9A6802F00C02042A07D09A6802F0ED
:103800000C02082A0BD15A68560208D58F4B1B6848
:103810009D03DCD56368002BD9D1012014E06268D8
:10382000B2F5803F13D11A6842F480321A60FFF774
:1038300005F9864E054633689803C8D4FFF7FEF8AD
:10384000401B6428F7D9032002B0BDE8F0817F4D0A
:103850002B6892B923F480332B602B6823F48023E8
:103860002B60FFF7EBF806462B689903AFD5FFF7FF
:10387000E5F8801B6428F7D9E5E7B2F5A02F07D15A
:1038800043F480232B602B6843F480332B60CEE716
:1038900023F480332B602B6823F48023F6E76B4BF3
:1038A0009A6812F00C0F07D09A6802F00C02082AEE
:1038B00011D15A6852020ED4644A13689B0702D58C
:1038C000E368012BA9D11368216923F0F80343EAC7
:1038D000C10313607EE7E268C2B11A685B4D42F033
:1038E00001021A60FFF7AAF806462B689F0707D562
:1038F0002B68226923F0F80343EAC2032B6069E7CF
:10390000FFF79CF8801B0228EFD99CE71A684F4EFE
:1039100022F001021A60FFF791F805463368980714
:103920007FF558AFFFF78AF8401B0228F6D98AE7DF
:103930006369464D83B16B6F43F001036B67FFF71B
:103940007DF806466B6F9B073FF548AFFFF776F8AB
:10395000801B0228F6D976E76B6F23F001036B67B3
:10396000FFF76CF806466B6F9F077FF537AFFFF7E1
:1039700065F8801B0228F6D965E7344B1A6CD00035
:1039800027D41A6C012742F080521A641B6C03F092
:1039900080530193019B2E4D2B68D9051BD5A3683D
:1039A0002A4D012B27D12B6F43F001032B6741F2E6
:1039B0008838FFF743F8254E0546336F9B073FD500
:1039C000002F3FF40FAF214A136C23F08053136490
:1039D00008E70027DFE72B6843F480732B60FFF7CD
:1039E0002DF806462B68DA05D9D4FFF727F8801B97
:1039F0006428F7D927E7ABB92B6F41F2883823F059
:103A000001032B672B6F23F004032B67FFF716F8D6
:103A100006462B6F9807D3D5FFF710F8801B40455B
:103A2000F7D910E7052B2B6F03D143F004032B6765
:103A3000B9E723F001032B672B6F23F00403B5E7ED
:103A4000FEF7FCFF401B4045B7D9FCE600380240BA
:103A500000700040384DAB6803F00C03082B41D0D8
:103A60002B68022A23F080732B602ED1FEF7E6FF2D
:103A700006462B68990122D4A36A5B085A1ED4E932
:103A800007310B4343EA0243626A43EA8213E26A64
:103A900043EA026343F000536B602B6843F080738A
:103AA0002B60FEF7CBFF244D04462B689A013FF5AF
:103AB0009DAEFEF7C3FF001B0228F6D9C3E6FEF752
:103AC000BDFF801B0228D4D9BDE6FEF7B7FF044630
:103AD0002B689B017FF58AAEFEF7B0FF001B022822
:103AE000F6D9B0E6012A6B683FF497AE03F4800282
:103AF000E1698A427FF491AE03F03F02216A8A4273
:103B00007FF48BAE47F6C072616A1A40B2EB811F38
:103B10007FF483AEA26A03F440315208013AB1EB5C
:103B2000024F7FF47AAE03F07063E26AB3EB026F88
:103B30003FF45CAE71E600BF00380240134908B59F
:103B40008B6803F00C03042B1BD0082B1BD14A6895
:103B50004B68496802F03F0213F48003C1F38811F7
:103B60001ABF0B4800230B48A1FB0001FDF78CF89E
:103B7000064B5B68C3F3014301335B00B0FBF3F01A
:103B800008BD0348FCE70348FAE700BF00380240DD
:103B900000127A000024F4002DE9F0410D4604469D
:103BA00010B90120BDE8F081464A136803F00F0305
:103BB0008B4228D32268970730D4D00744D4414A97
:103BC000136803F00F03AB4267D82268510770D423
:103BD000130707D53C4A2169936823F4604343EAFD
:103BE000C1039360FFF7AAFF374B384A9B68C3F3C2
:103BF0000313D35CD840364B1860364B1868FDF77A
:103C0000ADFD0020CEE7136823F00F030B431360D4
:103C1000136803F00F038B42C3D1CBE712F0040FFC
:103C2000294B03D0996841F4E0519960160703D5F8
:103C3000996841F4604199602349A0688B6823F03A
:103C4000F00303438B60B8E761681F4B01291A68D2
:103C50001BD112F4003FA4D09A6841F288381A4F61
:103C600022F003020A439A60FEF7E8FE0646BB68AC
:103C7000626803F00C03B3EB820FA0D0FEF7DEFE08
:103C8000801B4045F3D903208CE7022902D112F0B2
:103C9000007FE0E712F0020FDDE7136823F00F0367
:103CA0002B431360136803F00F03AB427FF479AF2B
:103CB0008BE70549E0688B6823F4E05303438B608E
:103CC00086E700BF003C024000380240C0970F0862
:103CD000500F0020580F0020044B054A9B68C3F387
:103CE0008223D35C034A1068D840704700380240F2
:103CF000D0970F08500F00200F2303600B4B9A68DA
:103D000002F0030242609A6802F0F00282609A6850
:103D100002F4E052C2609B68DB0803F4E0530361E5
:103D2000034B1B6803F00F030B6070470038024021
:103D3000003C024003682DE9F74313F001060446F6
:103D40000BD0AA4A916821F400019160466B9168FA
:103D50003143B6FA86F67609916013F4002512D045
:103D6000A249E56BD1F88C20B5F5801F22F44012F2
:103D700008BF012642EA050216BFB5FA85F50025FF
:103D80006D09C1F88C20D80210D59848216CD0F864
:103D90008C20B1F5800F22F4400242EA0102C0F803
:103DA0008C2000F08481002908BF012513F0807F5A
:103DB00018BF0126990631D58C4B8D4F1A6C42F0F5
:103DC00080521A641B6C03F080530193019B3B6883
:103DD00043F480733B60FEF731FE80463B68DA05B2
:103DE00040F16781814F3B6F13F4407340F06C8169
:103DF000236B03F44072B2F5407F7C4A40F08A8125
:103E0000916823F0704021F4F81120F440700143D0
:103E10009160C3F30B03116F0B4313672368D9063B
:103E20000CD5724AD2F88C1021F08071C2F88C1037
:103E3000D2F88C10A06B0143C2F88C105A0408D53C
:103E40006A49606ED1F8902022F440320243C1F8F2
:103E500090201F0408D56549A06ED1F8902022F467
:103E600040220243C1F89020D80308D55F49E06E94
:103E7000D1F8902022F440120243C1F89020990317
:103E800008D55A49206FD1F8902022F4400202430D
:103E9000C1F890205A0608D55449606CD1F890209A
:103EA00022F003020243C1F890201F0608D54F49B3
:103EB000A06CD1F8902022F00C020243C1F89020AF
:103EC000D80508D54949E06CD1F8902022F030029D
:103ED0000243C1F89020990508D54449206DD1F8D6
:103EE000902022F0C0020243C1F890205A0508D564
:103EF0003E49606DD1F8902022F440720243C1F82F
:103F000090201F0508D53949A06DD1F8902022F4E2
:103F100040620243C1F89020D80408D53349E06DCF
:103F2000D1F8902022F440520243C1F89020990425
:103F300008D52E49206ED1F8902022F44042024349
:103F4000C1F890205A0208D52849A06FD1F89020D6
:103F500022F080620243C1F890209F020CD52348D2
:103F6000E16FD0F89020B1F1006F22F0006208BF3D
:103F700001250A43C0F8902013F0080F18BF01254F
:103F8000580308D51949606FD1F8902022F040728B
:103F90000243C1F89020190209D51449D4F88000D1
:103FA000D1F8902022F080520243C1F89020012ED7
:103FB00000F0B4809A0100F1B180012D75D10B4D54
:103FC0002B6823F080532B60FEF738FD06462B68E4
:103FD0009F0000F127812268160301D5E36B4BB1E6
:103FE000D00222D5236C03BB04E000BF003802409E
:103FF00000700040D5F88830D5F8881003F44033BD
:1040000001F0E0410B43616943EA8113A16943EA8E
:104010000163C5F88830D5F88C30A16A23F4F853D1
:10402000013943EA0123C5F88C30910215D5E36FBD
:10403000B3F1006F11D18249D1F88830D1F88800EE
:1040400003F0706300F0E0400343606943EA8013CB
:10405000206A43EA0043C1F88830120719D5784A2C
:10406000D2F88810D2F8883001F0706103F4403340
:104070000B43616943EA8113E16943EA0173C2F8C2
:104080008830D2F88C30E16A23F440330B43C2F815
:104090008C306B4C236843F080532360FEF7CEFCDA
:1040A000054623689B0040F1C480002009E00126FA
:1040B0007CE6FEF7C3FCA0EB080064287FF68EAE1A
:1040C000032003B0BDE8F083226B02F440729342F8
:1040D0003FF48EAE3B6F3A6F23F4407342F480326C
:1040E0003A673A6F22F480323A673B673B6FDB07EF
:1040F0007FF57EAEFEF7A2FC41F2883980463B6F29
:1041000098073FF575AEFEF799FCA0EB080048450F
:10411000F5D9D5E7916821F4F81179E6484E33686E
:1041200023F080633360FEF789FC074633681B0188
:1041300072D42268D70712D5636B83B9D6F884305E
:10414000D6F8841003F4403301F070610B436168CA
:1041500043EA8113A16843EA0173C6F88430160369
:1041600003D5E36BB3F5801F05D0D0021ED5236CB9
:10417000B3F5800F1AD13249D1F88430D1F88400D8
:1041800003F4403300F0E0400343606843EA8013E7
:10419000E06843EA0063C1F88430D1F88C00636AB8
:1041A00020F01F00013B0343C1F88C30D10111D531
:1041B0002349D1F88430D1F8840003F0706300F013
:1041C000E0400343606843EA8013206943EA004308
:1041D000C1F8843092010DD5236962681B0443EA5B
:1041E0008213E26843EA0263A26843EA0273144A54
:1041F000C2F88430124E336843F080633360FEF7B8
:104200001DFC074633681B013FF5D7AEFEF716FCD1
:10421000C01B6428F6D953E7FEF710FCC01B6428C6
:1042200084D94DE7FEF70AFC801B64287FF6CFAEE9
:1042300046E7FEF703FC401B64287FF632AF3FE7FA
:1042400000380240F0B5054689B00E46FEF7F6FB91
:104250000023074608212868CDE9003301F0FEF964
:104260000446D8B9296D2868090401F0A1FA04466A
:10427000A0B94FF0FF320823302106902868CDE91D
:1042800002230223CDE90413012302A9079301F0BD
:104290001BF9286801F0BCFA044690B1204609B029
:1042A000F0BD426B930212D501F0E8F808AB03EBC6
:1042B0008403013443F8200CFEF7C0FBC01B01301F
:1042C00023D02868426B12F02A0FEAD002E0426B3A
:1042D0009104F1D4426B120702D508248463DDE710
:1042E000426B930701D50224F8E7446B14F02004D5
:1042F00001D02024F2E7019B40F23A521BBA8263BC
:104300003360009B1BBA7360C8E74FF00044C5E7F9
:104310002DE9F04F0D4687B0044616469A46FEF743
:104320008DFB80462DB9A36B43F000630127A36387
:1043300010E094F83430012BDFB240F0DF8006EB60
:104340000A03E26D00219342A16307D9A36B43F0F6
:104350000073A363384607B0BDE8F08F03232068DD
:1043600000224FF0010B84F834304FF00209636CE7
:10437000C1626946012B4FF0FF3300934FEA4A2395
:1043800018BF760201939023CDE9042BCDE90239C1
:1043900001F09AF8DA4512D931462068C4F8309015
:1043A00001F08CF990B12368564A9A63A36B1843C5
:1043B000A063012384F8343000232363CAE7314625
:1043C0002068C4F830B001F061F9EBE7019E206885
:1043D000436B13F4957F436B17D0DB0509D5BAF116
:1043E000010F06D9636C032B03D001F0AFF900284D
:1043F000D9D12368596B11F0080136D0414A9A632C
:10440000A36B43F00803A363D3E71A0418D5BEB126
:1044100005F1040B05F1240920680BF1040B01F0F0
:104420002DF80BF8080C020A0BF8072C020C000EF2
:104430000BF8062C0BF8050CD945EDD12035203EA4
:10444000FEF7FCFA109BA0EB08009842BFD323684C
:1044500003272C4A9A63A36B43F00043A363012311
:1044600084F834300023236374E75A6B12F002029D
:104470000AD0244A9A63A36B43F00203A363012387
:1044800084F83430216365E7596B890627D51D49C7
:104490009963A36B43F02003A363012384F83430B2
:1044A000226357E700F0EAFF05F8040C030A043E14
:1044B000043505F8073C030C05F8063C030E05F827
:1044C000053CFEF7BBFA109BA0EB0800984207D30F
:1044D00023680C4A9A63A36B43F0004393E70435C7
:1044E0002068436B9B0201D5002EDBD140F23A538A
:1044F00000278363012384F834302BE7A36B43F058
:10450000005313E7FF0540002DE9F04F0D4689B039
:10451000044692461F46FEF791FA814635B9A36BD1
:1045200043F000634FF00108A36311E094F83430C6
:10453000012B5FFA83F840F0AC800AEB0703E26DD1
:1045400000219342A16307D9A36B43F00073A363D7
:10455000404609B0BDE8F08F0323206884F834306A
:10456000636CC1629021012B4FF0FF3302934FEA3D
:10457000472318BF4FEA4A2A03930023CDE90413C7
:104580000693012302A9079300F09EFF012F12D981
:10459000202351462068236301F0C0F890B12368BE
:1045A0003E4A9A63A36B1843A063012384F8343016
:1045B00000232363CCE7102351462068236301F0D6
:1045C00095F8EBE7039E2068436B13F48D7F436BF4
:1045D00016D0DB0508D5012F06D9636C032B03D059
:1045E00001F0B4F80028DAD12368586B10F0080005
:1045F00029D02A4A9A63A36B43F00803A363D4E744
:104600005A040CD55EB105F1200B55F8043B01A905
:104610002068019300F035FFAB45F6D1203EFEF750
:104620000DFA129BA0EB09009842CCD323684FF0FF
:1046300003081A4A9A63A36BA363012384F83430F6
:104640000023236384E7596B11F002010AD0134A57
:104650009A63A36B43F00203A363012384F834300D
:10466000206375E75A6B12F010020AD00B4A9A6366
:10467000A36B43F01003A363012384F83430216358
:1046800066E740F23A5190469963012384F834304A
:104690005EE7A36B43F0005344E700BFFF05400013
:1046A00070470000436E9A0F0A70C3F383624A702A
:1046B000C3F301628A70C3F30742CA70C3F30722CF
:1046C000DBB20A714B71836E1A0DCA80C3F30342C9
:1046D0000A72C3F3C0324A72C3F380328A72C3F3E0
:1046E0004032CA72C3F300320A7300224A73426C2A
:1046F00010B5002A6CD140F6FC74C26E04EA830344
:1047000043EA92730B61C2F3C2630B75C2F3026397
:104710004B75C2F342538B75C2F38243C2F3C2326C
:10472000CB750A760B690A7E013302F0070202326A
:1047300003FA02F242650B7A03F00F040123A3404F
:1047400083655B0A5343C3654FF400730366C36E0E
:10475000C3F380324A76C3F3C61203F07F038A762E
:10476000CB76036F0020DA0F0A77C3F341724A77E2
:10477000C3F382628A77C3F38352CA77C3F340528A
:1047800081F82020C3F3004281F8210081F8222023
:10479000C3F3C03281F82320C3F3803281F8242090
:1047A000C3F3403281F82520C3F3003281F826207C
:1047B000C3F3812281F82720C3F30122C3F3460308
:1047C00081F8282081F82930012381F82A3010BD92
:1047D000012A0FD11B04B0F86E2003F47C1313439D
:1047E0000B610B6901339B024365C3654FF4007392
:1047F0008365ABE70368054A9A63836B43F0805394
:104800008363012380F834301846E0E7FF05400059
:104810002DE9F041002398B004460B93CDE909330C
:10482000CDE9073376230C930AAB93E8070007AB77
:104830008DE8070020680ECB00F004FE0546002836
:1048400040F0E3802068436823F48073436000F005
:104850001DFE22680220536843F480735360FEF704
:10486000F3F82068069500F043FE054640B920683D
:1048700001F00EF970B12068A56400F039FE98B11E
:10488000012584F83450A36B0343A363284618B072
:10489000BDE8F0810123A3640021206800F088FFB7
:1048A00028B14FF08050EBE7A36C012BF4D0002629
:1048B0004FF6FE77DFF85C8114E03146206800F0A7
:1048C00077FF0028DCD14146206801F043F800283A
:1048D000E7D13146206800F0F4FD069B0546C60F7F
:1048E00001330693069BBB4201D8002EE5D0069B00
:1048F000BB420CD8C5F38075012320686564ADF810
:10490000163000F0C7FD28B94FF08060B8E74FF0CF
:104910008070B5E7636C032B43D0206800F0CEFFB6
:104920000028ADD10146206800F0CBFD042160676E
:10493000206800F0C6FD0821A067206800F0C1FDD6
:104940000C21E067206800F0BCFD636CC4F88000B7
:10495000032B26D00DF11601206801F057F800282E
:104960008ED1636C2068032B1BD0BDF81610216517
:10497000090400F0B8FF002882D10146206800F049
:10498000A0FD04216066206800F09BFD0821A06660
:10499000206800F096FD0C21E066206800F091FD93
:1049A00020670421206800F08CFD0DA9000DE06453
:1049B0002046FFF777FE054600287FF472AF226D90
:1049C00003462068120400F0DBFE00287FF458AF95
:1049D00004F1100393E80700231D8DE80700206809
:1049E0000ECB00F02FFD4FF40071206800F036FE72
:1049F00000283FF44BAF23680125054A9A63A36B57
:104A00001843A06384F8345040E701253EE700BF17
:104A1000FF054000000010C110B5044608B9012090
:104A200010BD90F8343003F0FF0213B90277FCF7A1
:104A3000CBFD0323204684F83430FFF7E9FE00283D
:104A4000EDD10123A063206384F83430E8E7436CA0
:104A50000B60836C4B60C36C8B60036DCB60436DEC
:104A60000B61836D4B61C36D8B61036E0020CB6165
:104A7000704700000323F0B580F834308BB0436CEE
:104A800004460D46032B02D0B1F5805F03D1A36B22
:104A900043F080535DE0B1F5006F006837D100212D
:104AA000CDE9041100F00DFD800149D404A9204690
:104AB000FFF7C8FB60B9059B590344D5216D2068F9
:104AC000090400F075FE18B90221206800F088FE84
:104AD000A36B1843A063A66B2768002E3BD0294B1D
:104AE0000125BB6384F834504FF40071206800F056
:104AF000B5FD30B123680125224A9A63A36B1843A0
:104B0000A0630123284684F834300BB0F0BDE9B926
:104B1000CDE9041100F0D5FC820111D404A920468E
:104B2000FFF790FB0028D3D1059BDB030BD5216D4C
:104B30002068090400F03CFE0028C9D10146C4E702
:104B40004FF40060C4E74FF08060C1E7A36B43F00F
:104B50000063A363BFE763680493A3680593E368F6
:104B6000CDE90635636935460893A36909930AAB15
:104B700013E9070004AB8DE8070038460ECB00F0C0
:104B800061FCB1E7FF054000016D10B50904044662
:104B9000006800F055FE014628B9206800F091FC3D
:104BA000C0F3432010BDA06B0843A0630020F7E7CB
:104BB00010B5846B40F23A52236820469A63FFF79F
:104BC000E3FF0123053884F83430002301282363F0
:104BD00005D8206800F0BAFDA36B1843A063A36B4F
:104BE000204613B9FCF739FE10BDFFF759FDFBE76E
:104BF0002DE9F341056B04460068436B1F041FD584
:104C00002E071DD5E76AC7B1A66A351D06F124082F
:104C10002068043500F032FC05F8080C030A05F89A
:104C2000073C030C000E05F8063C05F8050C45454D
:104C3000EED12036203FA662E76202B0BDE8F081E7
:104C4000436BD90544D54FF480732A078363C36B44
:104C500023F4414323F03A03C363C36A23F00103FF
:104C6000C3621AD515F0220F08D000F06FFD28B1ED
:104C7000A36B1843A0632046FFF712FD236840F2A0
:104C80003A5220469A63012384F834300023236388
:104C9000AB071AD0FCF7EBFDCFE72F06CDD5AE065C
:104CA00008D500F053FD28B1A36B1843A06320463C
:104CB000FFF7F6FCA807C0D122682046D36A23F08C
:104CC0000803D362012384F83430FCF7CBFDB4E74A
:104CD000436B590426D52A0724D5676A002FACD028
:104CE000266A351D06F1240815F8043C043501A98F
:104CF0002068019315F8072C43EA0223019315F865
:104D0000062C43EA0243019315F8052C43EA02639B
:104D1000019300F0B6FB4545E6D12036203F2662E0
:104D200067628AE7436B13F03A0F86D0436B9B07A9
:104D300003D5A36B43F00203A363436B1F0703D5A3
:104D4000A36B43F00803A363436B9E0603D5A36BD9
:104D500043F02003A363436BD90603D5A36B43F051
:104D60001003A36340F23A538363C36B23F49D7330
:104D7000C36300F0EBFCA36B2A0740EA0300A063C7
:104D800008D50123204684F8343000232363FFF73D
:104D900087FC52E72B067FF550AF15F0300F0DD092
:104DA000E06B114B0365FEF71BF800283FF445AF9D
:104DB000E06B02B0BDE8F041FFF7FABE15F0030565
:104DC00009D0206C094B0365FEF70AF800283FF470
:104DD00034AF206CEDE70123A563204684F834301E
:104DE0002563FCF73AFD28E7B14B0008F14D0008B8
:104DF000FFF7DEBE38B50D460446C8B190F82C303A
:104E000003F0FF021BB980F82D20FCF73FFC0223C2
:104E1000211D206884F82C3000F087FA626829464A
:104E2000206800F0BDFA0123002084F82C3038BD42
:104E30000120FCE770B590F82C3005460E46022B99
:104E4000D8B210D000F0FB04012C10D10223286846
:104E500085F82C3000F0DAFA3368022B04D10523F0
:104E600085F82C30002070BD85F82C40FAE7012031
:104E7000F9E738B590F82C300446022BD8B20DD0A3
:104E800094F82C30012BDDB209D10223206884F87C
:104E90002C3000F0CDFA002084F82C5038BD0120D1
:104EA000FCE7704790F83D30012B33D1022380F8A6
:104EB0003D300368DA6842F00102DA60164A934234
:104EC0001AD0B3F1804F17D0A2F57C42934213D091
:104ED00002F5806293420FD002F5806293420BD0BC
:104EE00002F57842934207D002F57052934203D004
:104EF000A2F59432934207D19968084A0A40062ADB
:104F000006D0B2F5803F03D01A6842F001021A6061
:104F10000020704701207047000001400700010099
:104F2000704770477047704703681A69910710B55A
:104F300004460FD5DA6892070CD56FF002021A61A9
:104F4000012202779B69990700F08580FFF7E9FF4E
:104F50000023237723681A69520710D5DA685007AF
:104F60000DD56FF0040220461A61022222779B6958
:104F700013F4407F75D0FFF7D4FF00232377236815
:104F80001A6911070FD5DA6812070CD56FF00802FD
:104F900020461A6104222277DB699B0767D0FFF75E
:104FA000C0FF0023237723681A69D00610D5DA687A
:104FB000D1060DD56FF0100220461A610822227723
:104FC000DB6913F4407F58D0FFF7ABFF0023237752
:104FD00023681A69D20708D5DA68D00705D56FF0BB
:104FE000010220461A61FCF77BF823681A69110652
:104FF00008D5DA68120605D56FF0800220461A61DE
:1050000000F0D9F823681A69D00508D5DA681106C6
:1050100005D56FF4807220461A6100F0CDF8236840
:105020001A69520608D5DA68500605D56FF04002B5
:1050300020461A61FFF777FF23681A69910622D587
:10504000DA6892061FD56FF0200220461A61BDE88B
:10505000104000F0AFB8FFF763FF2046FFF762FF94
:1050600076E7FFF75DFF2046FFF75CFF85E7FFF778
:1050700057FF2046FFF756FF93E7FFF751FF204603
:10508000FFF750FFA2E710BD304A0368904212D0EC
:10509000B0F1804F0FD0A2F57C4290420BD002F5C8
:1050A0008062904207D002F58062904203D002F500
:1050B0007842904219D14A6823F070031343234A7F
:1050C000904229D0B0F1804F26D0A2F57C42904288
:1050D00022D002F5806290421ED002F5806290429A
:1050E0001AD002F57842904216D0194A904213D055
:1050F00002F5806290420FD002F5806290420BD0A0
:10510000A2F59832904207D002F58062904203D017
:1051100002F58062904203D123F44073CA681343BE
:105120004A6923F08003134303608B68C3620B68F2
:105130008362064B984203D003F58063984201D105
:105140000B69036301234361704700BF0000014006
:105150000040014010B5044650B390F83D3003F0D4
:10516000FF021BB980F83C20FFF79BFE022320685A
:10517000211D84F83D30FFF787FF0123002084F8CC
:10518000483084F83E3084F83F3084F8403084F86A
:10519000413084F8423084F8433084F8443084F855
:1051A000453084F8463084F8473084F83D3010BDEF
:1051B0000120FCE77047704770472DE9F041DDF8AA
:1051C000188004460E4615461F462268D36936EA03
:1051D00003030CBF01230023AB4201D0002025E0D4
:1051E000B8F1FF3FF2D0FDF729FCC01B4045206815
:1051F00002D8B8F1000F1BD150E8003F23F4D07360
:1052000040E80032002AF7D100F1080353E8003FDC
:1052100023F0010300F1080141E80032002AF3D134
:105220002023A367E367032084F87420BDE8F0819E
:1052300003685A07C9D5C3691B05C6D54FF4006377
:10524000036250E8003F23F4D07340E80032002AA4
:10525000F7D100F1080353E8003F23F0010300F108
:10526000080141E80032002AF3D12023A367E36755
:10527000C4F88030D7E72DE9FF419846836F044694
:105280000E46202B17464ED100294AD0002A48D07E
:1052900090F87430012B46D00123002580F874303B
:1052A0002123C0F880508367FDF7C8FBA26803463E
:1052B000A4F85070B2F5805FA4F8527003D122694F
:1052C0000AB935461646002284F87420B4F85220F4
:1052D000CDF8008092B23AB940212046FFF76DFF29
:1052E00050B92023A36708E00022802120460393C1
:1052F000FFF763FF039B18B1032004B0BDE8F08102
:1053000021685EB935F8022BC2F308028A62B4F84C
:105310005220013A92B2A4F85220D7E716F8012B96
:10532000F4E70120E9E70220E7E72DE9F0430A6806
:10533000D1F82490D1E90743D1E90158D1E903EC30
:10534000D1E905762343A2B943EA090201682A4359
:1053500021F4FF4142EA080321F07F0143EA0E03F2
:1053600043EA0C033B4333430B4303600020BDE897
:10537000F083026843EA090322F4F842134303600E
:1053800045EA0803426843EA0E0322F4FF4243EA77
:105390000C0322F07F023B43334313434360E5E7B2
:1053A000CB6803F1FF3C4B69F0B5013B0F684C68DB
:1053B0008E681B050D69013C8969013E013D013F75
:1053C0000139240136022D04090643EA0C335AB987
:1053D0003B438268234302F0704233432B430B4329
:1053E000134383600020F0BD826822F4700222F42F
:1053F00070421A4344EA06033B438260C2682B436F
:1054000002F070420B431343C360EBE7026910B52F
:10541000D1E90034920D2343CC68920543EA44233A
:1054200013438A68013A43EA42130361002010BD26
:10543000436923F47F5323F03E0343EA4101416172
:105440000020704784B010B503AC84E80E000B4612
:10545000049942680B43059922F4FD420B430699D7
:1054600022F07F020B4307990B4308990B43BDE8D9
:105470001040134304B0436000207047D0F8800010
:1054800070470B68C0F8803000207047032303602A
:1054900000207047006800F0030070470B6810B5EB
:1054A0008360C268D1E9013422F47F622343CC686F
:1054B000096922F00F0223430B431343C36000200A
:1054C00010BD1430405870470B6810B543624B68EC
:1054D0008362C26AD1E9023422F0F70223430C69E5
:1054E000496923430B431343C362002010BD0000EE
:1054F00010B5002386B0044601A9CDE90133CDE9FA
:1055000003334FF480630593FFF7C8FF0A4B4FF452
:10551000FA521B68B3FBF2F341F288325343013B6A
:1055200007D3626B1206FAD5C5230020A36306B029
:1055300010BD4FF00040FAE7500F0020454B10B56A
:105540001B6804464FF4FA50B3FBF0F35A43002AA9
:1055500049D0636B13F0450F07D01B0505D4636B6F
:10556000580704D50420A06310BD013AEFE7606B33
:1055700010F0010002D00123A363F5E7C523A36364
:105580002369DBB2994231D163693348184000285E
:10559000EAD0002B2CDB5A002DD49C002DD4D9004E
:1055A0002DD41A012ED45C012FD4D90130D41A0283
:1055B00031D45C0232D4990233D4DA0234D45C039D
:1055C00035D4990336D4DA0337D41C0438D45904BB
:1055D00039D49A043AD413F0080F14BF4FF40000E2
:1055E0004FF48030C0E74FF00040BDE70120BBE73B
:1055F0004FF00070B8E74020B6E78020B4E74FF4E2
:105600008070B1E74FF40070AEE74FF48060ABE715
:105610004FF40060A8E74FF48050A5E74FF4005026
:10562000A2E74FF480409FE74FF400409CE74FF41F
:10563000003099E74FF4802096E74FF4002093E77D
:105640004FF4801090E74FF400108DE74FF4800086
:105650008AE700BF500F002008E0FFFD30B540236F
:1056600087B0102500220446019101A9CDE902531B
:105670004FF48063CDE90423FFF710FF41F2883235
:1056800029462046FFF75AFF07B030BD30B540230A
:1056900087B0112500220446019101A9CDE90253EA
:1056A0004FF48063CDE90423FFF7F8FE41F288321E
:1056B00029462046FFF742FF07B030BD30B54023F2
:1056C00087B0122500220446019101A9CDE90253B9
:1056D0004FF48063CDE90423FFF7E0FE41F2883206
:1056E00029462046FFF72AFF07B030BD30B54023DA
:1056F00087B0182500220446019101A9CDE9025383
:105700004FF48063CDE90423FFF7C8FE41F28832ED
:1057100029462046FFF712FF07B030BD30B54023C1
:1057200087B0192500220446019101A9CDE9025351
:105730004FF48063CDE90423FFF7B0FE41F28832D5
:1057400029462046FFF7FAFE07B030BD30B50023EA
:1057500087B00C254022044601A9CDE90323CDE9F9
:1057600001354FF480630593FFF798FE034A2946FD
:105770002046FFF7E3FE07B030BD00BF00E1F505AE
:1057800030B5402387B0072504460192002201A9C5
:10579000CDE902534FF48063CDE90423FFF77EFE89
:1057A00041F2883229462046FFF7C8FE07B030BDD7
:1057B00030B5402387B0372500220446019101A966
:1057C000CDE902534FF48063CDE90423FFF766FE71
:1057D00041F2883229462046FFF7B0FE07B030BDBF
:1057E00030B5402387B0062500220446019101A967
:1057F000CDE902534FF48063CDE90423FFF74EFE59
:1058000041F2883229462046FFF798FE07B030BDA6
:1058100030B5002387B033254022044601A9CDE9E5
:105820000323CDE901354FF480630593FFF736FE7E
:1058300041F2883229462046FFF780FE07B030BD8E
:1058400030B5402387B00D2500220446019101A9FF
:10585000CDE902534FF48063CDE90423FFF71EFE28
:1058600041F2883229462046FFF768FE07B030BD76
:10587000114B4FF4FA5102461B68B3FBF1F341F2AE
:1058800088314B43013B13D3516B11F0450FF9D0D5
:105890000905F7D4536B5B0702D50420906370476A
:1058A000506B10F0010014BF0123C52393637047B0
:1058B0004FF00040704700BF500F002010B500238C
:1058C00086B00222044601A9CDE90132C022CDE909
:1058D00003234FF480630593FFF7E0FD2046FFF7B5
:1058E000C7FF06B010BD10B5092286B0C02304461C
:1058F00001910021CDE902234FF48063CDE9041327
:1059000001A9FFF7CBFD2046FFF7B2FF06B010BD9F
:105910000F4B4FF4FA5102461B68B3FBF1F341F20F
:1059200088314B43013B0FD3516B11F0450FF9D038
:105930000905F7D4506B10F0040002D004209063E6
:105940007047C523936370474FF00040704700BF16
:10595000500F002041F000412922402341F48011E2
:1059600010B586B00446CDE9022301914FF480635F
:105970000021CDE9041301A9FFF790FD2046FFF7B0
:10598000C7FF06B010BD00001F4B10B51B680446D2
:105990004FF4FA50B3FBF0F341F288304343013B3C
:1059A00029D3606B10F0450FF9D00005F7D4636B75
:1059B000580702D50420A06310BD606B10F00100F1
:1059C00002D00123A363F7E72369DBB2994215D123
:1059D000C523A363636913F4604002D11B0C1380D9
:1059E000EAE75A040CD413F4004F14BF4FF480506C
:1059F0004FF48030E0E74FF00040DDE70120DBE7C7
:105A00004FF40050D8E700BF500F002030B589B0E8
:105A100000230325044601914021CDE90335CDE95A
:105A200005134FF4806303A90793FFF737FD019A2D
:105A300029462046FFF7A8FF09B030BD134B4FF4AD
:105A4000FA5102461B68B3FBF1F341F288314B4334
:105A5000013B17D3516B11F0450FF9D00805F7D46E
:105A6000536B590702D5042090637047506B10F0B8
:105A7000010002D0012393637047536B5B0603D58B
:105A80004023F8E74FF00040704700BF500F002060
:105A900010B54FF4D57286B0082340210446CDE9F5
:105AA00001230023CDE903134FF4806301A905937B
:105AB000FFF7F4FC2046FFF7C1FF06B010BD000061
:105AC000134B30B51C7889B0154614F001041BD176
:105AD000032903D8DFE801F01A060C12042420463B
